:020000040800F2
:10000000103E002045010008DD350008F31B000804
:100010002B350008411500081B4F000800000000A8
:10002000000000000000000000000000654800081B
:1000300061150008000000009F430008794900088E
:100040005F0100085F0100085F0100085F01000810
:100050005F0100085F0100083D1800085118000802
:100060005F0100085F0100085F0100085F010008F0
:100070005F0100085F0100085F0100085F010008E0
:100080005F0100085F0100085F0100085F010008D0
:100090005F0100085F0100085F0100085F010008C0
:1000A0005F0100085F0100085F0100085F010008B0
:1000B000DD490008514A00085F0100085F0100089F
:1000C0005F0100085F0100085F0100085F01000890
:1000D0005F010008694C0008014D00085F0100083D
:1000E0005F0100085F0100085F0100085F01000870
:1000F0005F0100085F0100085F0100085F01000860
:100100005F0100085F0100085F0100085F0100084F
:100110005F0100085F0100085F0100085F0100083F
:100120005F0100085F0100085F0100085F0100082F
:10013000DFF80CD000F0F4FD00480047A17500087E
:10014000103E00200648804706480047FEE7FEE7CD
:10015000FEE7FEE7FEE7FEE7FEE7FEE7FEE7FEE777
:100160007D490008310100082DE9F0410024061BFB
:10017000254671F1000605DA01240027D0EB0700BF
:1001800067EB0101161E73F1000605DA0027D2EBBA
:100190000702012567EB030300F0C6FB86460E4607
:1001A00017469C46AC4204D00025D0EB050E65EB0B
:1001B000010624B10020D2EB000760EB030C70466F
:1001C00031463A466346BDE8F08140EA01039B07A9
:1001D00003D009E008C9121F08C0042AFAD203E0BC
:1001E00011F8013B00F8013B521EF9D27047D2B220
:1001F00001E000F8012B491EFBD270470022F6E710
:1002000010B513460A4604461946FFF7F0FF20468C
:1002100010BD30B505462A460B4612F8010B13F8FF
:10022000014B08B1A042F8D01CB1002802D06D1CCF
:10023000F1E7284630BDCAB2401E10F8011F8A42BD
:1002400002D00029F9D100207047421C10F8011B90
:100250000029FBD1801A704730B5044600200346C0
:1002600000E05B1C934203D2E05CCD5C401BF8D005
:1002700030BD10B5044600E0401C0378002BFBD1D4
:1002800000E0401C521E04D311F8013B0370002B08
:10029000F7D100210170204610BD70B5064604F06C
:1002A000E5FE046805460A220021304600F0ECFB1A
:1002B0002C6070BDF0B480EA0102D40F4200B2EBB2
:1002C000410F02D20246084611464A0042D0C30DF1
:1002D000DDB2C1F3C752AD1A202D35DAC1F31601D4
:1002E00041F4000204B15242C5F1200602FA06F1BF
:1002F0002A411044B3EBD05F23D0C4B1012DA0EB51
:10030000C35009DCF0BC4FF0004202EAC352DBB23A
:1003100000F5000000F0F9BB400000F1807000EB38
:10032000C350A0F1807040EAD170490009E049084B
:1003300041EAC071A0EBC35000F50000400800EB9B
:10034000C350F0BC00F0D8BB6142012202EB410176
:10035000001BF6E7F0BC704781F00041AAE780F08F
:100360000040A7E780EA010210B502F00043400018
:1003700022D04A001FD0010E01EB1261C0F35600DB
:10038000C2F3560240F4000042F40002A0FB022037
:1003900000047F39140400D0401C50EA124001D4FC
:1003A0004000491EC2B20C0604EBD010401C4008AD
:1003B000802A02D003E0002010BD20F001000029B7
:1003C00000DA0020184310BD30B480EA010202F0C8
:1003D000004530F0004221F0004013D090B1C30D31
:1003E000D40DC2F31601C0F31600E41A41F4000163
:1003F00040F400027D34914201D3641C00E04900C6
:10040000002C02DA30BC002070474FF400000023BB
:10041000914201D3891A034340084FEA4101F7D1C1
:1004200051B1914202D14FF0004105E002D24FF0AC
:10043000010101E06FF0010103EBC450284430BC1E
:1004400000F05ABB2DE9FE4F804681EA0300C00F41
:100450000C46009021F0004123F00045B8EB02006B
:10046000A94105D24046214690461C460B4602460D
:1004700023F00040104347D0270DC7F30A00C3F311
:100480000A510290401A019040286BDAC3F313001E
:1004900040F4801B0098924620B10023D2EB030A5F
:1004A00063EB0B0B01985946C0F14002504600F037
:1004B0006CFA06460D4650465946019A00F084FAF9
:1004C00010EB08006141002487EA115284EAE773C7
:1004D0001A4340D0009A62B3019A012A4FEA0752A8
:1004E00015DC001B61EB02014FF0004202EA0752EB
:1004F000CDE90042001C41F5801132462B4600F048
:1005000041FB03B0BDE8F08F40462146F9E7001BF0
:1005100061EB0201001C41F5801300185B412018BB
:10052000A2F5001747EB030140EAD570B6196D41FB
:1005300011E06D084FEA360645EAC0754FEA0752EA
:10054000001B61EB0201001C41F5801149084FEAD4
:1005500030000019514132462B4603B0BDE8F04F40
:1005600000F001BB0098012240000023D0EB020202
:1005700063EBE073009821464FEAE074B8EB0000AB
:1005800061EB0401E9E783F000435BE781F00041A0
:1005900058E72DE9FE4F81EA030404F0004421F0FE
:1005A000004100944FF0000B23F0004350EA010497
:1005B0005ED052EA03045BD0C3F30A54C1F30A5578
:1005C0002C44A4F2F3340194A0FB0254C1F31301B0
:1005D00041F48011C3F3130343F4801301FB02447D
:1005E00000FB034E840A970A44EA815447EA835782
:1005F000A4FB076802958D0A05FB07854FEA932C3B
:1006000004FB0C542705029D4FEA065847EA1637AB
:10061000B5EB08056EEB070C870E920E47EA8117C3
:1006200042EA8312A7FB0201B6EB0B0164EB000464
:100630002B0D43EA0C335E1844EB1C50DA4651464E
:10064000E7FB0201C5F313044FEA0B3343EA1453EB
:100650004FEA0432019C43EA0603A4F10C0402941D
:10066000009CCDE900B400F08DFA03B0BDE8F08F36
:1006700000200146F9E72DE9F04D81EA030404F07A
:10068000004B21F0004514464FF0000A23F00041D2
:1006900050EA050220D054EA01021DD0C5F30A57E2
:1006A0000246C5F31303C1F31300C1F30A5640F425
:1006B000801543F48013A7EB0608101BD64608F2FA
:1006C000FD3873EB050002D308F1010801E0921830
:1006D0005B41B8F1000F03DA00200146BDE8F08D60
:1006E00000204FF48011064684460EE0171B73EB82
:1006F000050705D3121B63EB050306434CEA010C07
:1007000049084FEA300092185B4150EA0107EDD1E9
:1007100052EA030012D082EA040083EA050108438A
:1007200005D0101BAB4106D20122002306E00022B7
:100730004FF0004302E06FF0010253101AEB060085
:100740004CEB085110EB0A0041EB0B01BDE8F04DFA
:1007500000F009BAC10F80EAE0700844CA07962386
:10076000002100F0D2B996230022114600F0CDB945
:100770000EB5C10F80EAE0700844CA07002140F2BC
:1007800033438DE80E000A460B4600F0FBF903B038
:1007900000BD0EB540F2334102910021CDE90011B8
:1007A0000A460B4600F0EEF903B000BD00F000422F
:1007B00020F00040C10DC0F3160040F400007F2976
:1007C00001DA00207047962903DCC1F19601C84088
:1007D00001E096398840002AF4D04042704720F06A
:1007E0000040C10DC0F3160040F400007F2901DA7B
:1007F00000207047962903DCC1F19601C84070477C
:1008000096398840704770B5C1F30A5201F000452F
:100810000024C1F3130140F2FF3341F480119A42E6
:1008200001DA002070BD40F233439A42A2F2334213
:1008300003DC524200F0B8F800E090402C43F1D0C5
:10084000404270BD00F0004230F000400AD0C10DBF
:1008500001F56071C0F3160042EA0151C208400779
:1008600011437047002001467047000030B5041E58
:1008700071F1000404DB4FF00044404264EB0101DD
:10088000141E73F1000405DB1C464FF00043524276
:1008900063EB0403994208BF904230BD01F000436E
:1008A00030B421F0004150EA010206D00A0DA2F551
:1008B0006072C1F31301002A02DC30BC00207047D3
:1008C000440F44EAC104C100E01830BC00EBC25040
:1008D00000F012B9002801DBC0F10040002901DB63
:1008E000C1F1004181427047002801DBC0F10040A6
:1008F000002901DBC1F100418842704730B50B4649
:10090000014600202022012409E021FA02F59D423F
:1009100005D303FA02F5491B04FA02F52844151E13
:10092000A2F10102F1DC30BD2DE9F05F05460020A7
:1009300092469B4688460646814640241BE0284650
:1009400041464746224600F02FF853465A46C01A01
:10095000914110D311461846224600F016F82D1A80
:1009600067EB01084F4622460120002100F00DF8F8
:1009700017EB00094E41201EA4F10104DFDC4846BC
:1009800031462A464346BDE8F09F202A04DB203A40
:1009900000FA02F1002070479140C2F1200320FAD2
:1009A00003F3194390407047202A04DB203A21FAD0
:1009B00002F00021704721FA02F3D040C2F1200278
:1009C0009140084319467047202A06DBCB17203A8E
:1009D00041FA02F043EAE07306E041FA02F3D04044
:1009E000C2F1200291400843194670470FB400231A
:1009F00000B589B00CA900910B996FF00042CB6053
:100A00001E4B06931E4B07930423CDE901321D4A6A
:100A1000089202466B46002000F022FA09B05DF809
:100A200014FB70B586B006464FF0FF300091CDE95B
:100A30000101002015460C4604903246694604A880
:100A4000FFF7D4FF03460498211825B108B10A46E0
:100A500000E022462A6000280DD0002B02DD00981D
:100A6000884208D0081B0094CDE90104324669464B
:100A700004A8FFF7BBFF06B070BD00009910000886
:100A8000B71000084D0D00082DE9F04791460F46BC
:100A900080460446002614F8015B2DB100F052F99F
:100AA0000068405DC007F6D12B2D02D02D2D18D047
:100AB000641E4A463946204600F00EFB27B13968CD
:100AC000A14201D1C7F8008071054FF002040BD597
:100AD0004042002803DD04F0C9FA0460A007BDE825
:100AE000F08746F48066E4E70028F8DA04F0BEFAFE
:100AF00004606FF00040F2E70029A8BF7047401C77
:100B0000490008BF20F00100704710B4B0FA80FC23
:100B100000FA0CF050EA010404BF10BC704749B160
:100B2000CCF1200421FA04F411FA0CF118BF0121D0
:100B300021430843A3EB0C01CB1D4FEA00614FEAB0
:100B4000102042BF002010BC704700EBC35010447F
:100B50000029A4BF10BC7047401C490008BF20F00A
:100B6000010010BC704710B5141E73F1000408DAC0
:100B7000401C41F1000192185B411A4301D120F061
:100B8000010010BD2DE9F04D92469B4611B1B1FA1E
:100B900081F202E0B0FA80F220329046FFF7F5FED3
:100BA00004460F4640EA0A0041EA0B0153465A4602
:100BB000084313D0114653EA010019D0C8F140028E
:100BC0005046FFF7F1FE05460E465046594642464E
:100BD000FFF7DBFE084305D0012004E0204639463C
:100BE000BDE8F08D0020054346EAE0762C4337430C
:100BF0000A986305E40AA0EB08000022FD0A44EA13
:100C000047540A3002D500200146E9E701051019D2
:100C10006941DDE9084500196941BDE8F04DA2E7E9
:100C200070B521F0004303430CD0C1F30A550024F2
:100C3000D5EB040564EB0403D617AD1AB34102DB10
:100C40000020014670BD201841EB025170BD2DE916
:100C5000F04D00231A461B1A8A4103DB002001468F
:100C6000BDE8F08DC1F30A52C1F3130141F48015C0
:100C70004FF0000BD10702D100186D41521E002722
:100C8000044640F2FF11384601EB620A3E468046B8
:100C9000024600204FF48011FFF786FEC219714111
:100CA000BB1846EB0100B4EB030C75EB000C04D34E
:100CB000E41A65EB000517460E46241908F10100F9
:100CC0006D4180463428E3DDF91946EB0600091B27
:100CD000A84103D24FF0FF32134601E00022134631
:100CE0001BEB070046EB0A51BDE8F04DFFF73BBF99
:100CF000C1F30A52C1F3130140F2FF3341F48011F2
:100D00009A4202DA00200146704740F233439A4289
:100D1000A2F2334202DC5242FFF746BEFFF735BE75
:100D2000064C074D06E0E06840F0010394E8070038
:100D300098471034AC42F6D3FFF7FEF938B70008F5
:100D400058B70008004870475CB5000810B5044665
:100D5000FFF7F8FF0068005D00F0010010BD000023
:100D60002DE9FF4F087881B09946FF2805D0491C2E
:100D70002D2804D00024002308E000230BE00124E8
:100D8000F9E703EB830300EB4303491C0878FF28D2
:100D9000F7D104B15B4200200090147801462D2C5D
:100DA00001D02B2C04D1521C2D2C12D000240094E5
:100DB00000251678FF2E0ED00A24A0FB04C801FBE4
:100DC0000481002700FB0711521C16EB0C0069413F
:100DD000EFE70124EBE7994450EA01020ED000242A
:100DE000AA4D2646DFF8A88200F0D3F982468B464A
:100DF000B9F1000009DAC9F100071BE001980021F0
:100E0000C0E9001105B0BDE8F08F074612E0F80711
:100E100007D022462B4630464146FFF7BAFB06462E
:100E2000884622462B4610461946FFF7B2FB044679
:100E30000D467F10002FEAD1B9F1000F324643462C
:100E40005046594602DAFFF716FC01E0FFF7A1FB16
:100E5000009A0AB181F00041019AC2E90001D1E78C
:100E60002DE9FF4F1F468DB0D7E901464FF0FF38FF
:100E70002E2045464FF000090B90B9696D1C0E9865
:100E80008847396A824688470028F6D1BAF1FF3F81
:100E90000AD024F4D064002E11DDBAF12B0F08D053
:100EA000BAF12D0F0BD102E0404611B0ABE744F48C
:100EB0008064B9696D1C0E9888478246761E694623
:100EC000600501D52D2000E02B208DF8000001F1F8
:100ED000010B0DF1200809E0B9696D1C0E988847D7
:100EE00082460F9844F40074761E0560002E02DDE1
:100EF000BAF1300FF0D00B998A453ED144F080040E
:100F000006E00F99681CA9F1010944F40074086017
:100F1000B9696D1C761E0E98884782463028F0D03D
:100F20002BE00B998A4505D1200603D444F08004B8
:100F3000761E18E0504604F0D3F908B30DF1130102
:100F4000761E44F400748B4508D2AAF130000BF8E9
:100F5000010B200607D5A9F1010003E0200602D409
:100F600009F101008146A00502D50F99681C0860AF
:100F7000B9696D1C0E9888478246002ED1DC53E07B
:100F8000002E51DDBAF1650F02D0BAF1450F4BD1F9
:100F9000A00549D5B9696D1C24F44074761E0E98DD
:100FA00088478246002E0CDD2B2804D0BAF12D0F85
:100FB00007D144F48074B9696D1C0E988847824645
:100FC000761EE00501D52D2100E02B2108F8011B3C
:100FD000CDF82C8021E00DF12901761E44F4007437
:100FE00088450CD2AAF1300010F0FF0088F800000C
:100FF00002D10B99884509D908F1010806E0E005FE
:1010000001D5244801E042F20F708146B9696D1C98
:101010000E98884782460F980560002E04DD5046E2
:1010200004F05EF90028D6D1F9690E988847FF20B0
:101030008BF8000088F800000020069007904B46CF
:101040006A4608A906A8FFF78BFEA00502D46FF038
:1010500001002AE714F0240F0AD0E00714D1DDE9DB
:1010600006123868031D3B600068C0E900120BE0FF
:10107000DDE90601FFF712FC0146E00704D13868FC
:10108000021D3A600068016028460EE70000244017
:101090000000F03FF1D8FFFF426842B1016811F84B
:1010A000013B23B1521EC0E90012184670470121CE
:1010B000C160881E704742685AB1C368016843B96D
:1010C00083688B4205D0491E521CC0E900120020E3
:1010D00070474FF0FF3070472DE9F05F824600788F
:1010E000002715468B460AF10104B946302801D085
:1010F0009DB113E014F8010B0127782803D058287C
:1011000001D045B10AE00DB1102D07D100271025FF
:1011100014F8010B02E0082500E00A250026B0467D
:101120000EE005FB080005FB06F1012701EB104668
:101130001FFA80F8B6F5803F00D3B94614F8010BCA
:10114000294600F018F80028EBDABBF1000F05D0B3
:101150000FB1641E00E05446CBF80040B9F1000F17
:1011600006D003F083FF02210160C81EBDE8F09F96
:1011700048EA0640FAE73A2800D2303820F0200248
:10118000412A01D3A2F13700884201D34FF0FF304A
:1011900070470EB540F2334202920022CDE90022A0
:1011A0001346FFF7EFFC03B000BD70B58D1810F8C3
:1011B000014B14F0030201D110F8012B231106D1C9
:1011C00010F8013B03E010F8016B01F8016B521EAF
:1011D000F9D1ABB110F8012B04F00C048A1A0C2CD5
:1011E00003D0A2EB84129B1C08E010F8014BA2EB89
:1011F0000422F8E712F8014B01F8014B5B1EF9D508
:10120000A942D4D3002070BD2DE9F047322100203F
:1012100000F0D8FC1849086008460068FFF7A8FAF3
:101220000646164A164BFFF726FA0446FFF7EBFA76
:101230001449086008460068FFF79AFA0646124A01
:10124000124BFFF7A6F90446114A124BFFF7FAF8C2
:101250008046FFF7D8FA104908600846006805285C
:1012600001DA002008600C480068052190FBF1F0CD
:101270000A490860BDE8F08748000020AC1C5A64A9
:101280003BDFF33F5000002084D382177D05DF3F12
:1012900026E4839ECDAA1140580000205C00002067
:1012A00021B1826842F00102826003E0826822F08C
:1012B000010282607047000010B504461248844263
:1012C00008D10121401503F097F80021601503F0C3
:1012D00093F817E00D48844208D10121001503F06E
:1012E0008BF80021201503F087F80BE008488442B2
:1012F00008D10121C80303F07FF800214FF400401A
:1013000003F07AF810BD00000024014000280140DD
:10131000003C0140014600208A6802F004020AB144
:10132000012000E0002070470146C86C80B2704781
:101330000246002013680B400BB1012000E00020A2
:101340007047014600208A6802F008020AB10120B5
:1013500000E000207047000030B502460020002366
:1013600050680F4C20400D790C6844EA0524204356
:10137000506090680B4C2040D1E902542C434D79C9
:1013800044EA450420439060D06A20F470000C7C4D
:10139000641EE4B2234340EA0350D06230BD000033
:1013A000FFFEF0FFFDF7F1FFF0B504460D4600200B
:1013B0000021092D11DDE068A5F10A0606EB4607BC
:1013C000072606FA07F18843A5F10A0606EB46064A
:1013D00003FA06F10843E0600CE0206905EB4507DD
:1013E000072606FA07F1884305EB450603FA06F1DE
:1013F00008432061072A0FDA606B561E06EB86074A
:101400001F2606FA07F18843561E06EB860605FAE4
:1014100006F10843606322E00D2A0FDA206BD61F25
:1014200006EB86071F2606FA07F18843D61F06EB50
:10143000860605FA06F10843206310E0E06AA2F18F
:101440000D0606EB86071F2606FA07F18843A2F170
:101450000D0606EB860605FA06F10843E062F0BDCC
:10146000816841F008018160704721B1826842F4CF
:10147000A002826003E0826822F4A00282607047CA
:10148000816841F0040181607047000000B587B0B9
:1014900001214FF4017002F09FFF4FF4004002F071
:1014A0007FFF0220ADF8040000208DF8070001A99D
:1014B000174800F087FA1748FFF7FEFE0020029059
:1014C0008DF80C008DF80D004FF460200490002082
:1014D000059001208DF8180002A90E48FFF73CFF87
:1014E00001210C48FFF7DCFE0A48FFF7B9FF00BFF7
:1014F0000848FFF726FF0028FAD10648FFF7C0FF8B
:1015000000BF0448FFF706FF0028FAD107B000BD6E
:10151000000801400024014008B50121042002F028
:101520005BFF1020ADF800008DF8030003208DF85C
:1015300002006946014800F045FA08BD0008014074
:1015400000BFFEE710B5C8210348FEF757FE002094
:101550000249088010BD000045360020F20C002032
:101560007047000010B54FF480710348FEF746FE47
:1015700000200249088010BD0D370020100D00200A
:1015800070B50546002400BF00F03EF980B90DA1FA
:101590000E48FEF73EFE044654B13A212046FEF7BF
:1015A0004AFE044614B1641C204670BD0020FCE7CE
:1015B000052004F0FFFD2800A5F101018DB2E3D163
:1015C00000BFF2E74950442C000000000D37002016
:1015D00008B50121102002F0FFFE10208DF8030055
:1015E0008002ADF8000003208DF802006946334800
:1015F00000F0E8F900224FF48041304800F0C3FACF
:10160000FA2004F0D7FD012291032C4800F0BBFA28
:101610004FF4FA7004F0CEFDFFF7A4FF28A003F00A
:10162000EDFC03E04FF4FA7004F0C4FDC82226A1DB
:1016300026A000F09FF80028F4D126A003F0DEFCDD
:1016400003E04FF4FA7004F0B5FDC8221EA124A0F7
:1016500000F090F80028F4D125A003F0CFFC03E0BF
:101660004FF4FA7004F0A6FDC82217A124A000F0E0
:1016700081F80028F4D126A003F0C0FC03E04FF469
:10168000FA7004F097FDC82224A126A000F072F899
:101690000028F4D12BA003F0B1FC03E04FF4FA7062
:1016A00004F088FDC8222BA12C4800F063F8002824
:1016B000F4D12BA003F0A2FC08BD000000100140F3
:1016C000312E41540D0A00004F4B000041540D0AC9
:1016D0000D000000322E43574D4F44450D0A0000C7
:1016E00041542B43574D4F44453D310D0A000000F6
:1016F000332E41542B4357444843500D0A000000F9
:1017000041542B4357444843503D312C310D0A007E
:10171000342E43574A41500D0A000000474F5420D1
:101720004950000041542B43574A41503D22323228
:1017300032222C22313132333435363738220D0AF9
:1017400000000000352E43495053544152540D0AB5
:1017500000000000434F4E4E454354005CB6000865
:101760004553503832363620496E6974204F4B0D40
:101770000A0000002DE9F04105460E4614462846B1
:10178000FEF763FD87B23946284603F01FFC0FE0E1
:1017900000F03AF848B931460948FEF73AFD20B161
:1017A000FFF7E0FE0020BDE8F0810A2004F002FD12
:1017B0002000A4F101018CB2EAD10120F3E700007E
:1017C0000D37002030B589B005460C46FFF7CAFE3C
:1017D000224608A101A803F021FCC82209A101A802
:1017E000FFF7C8FF18B92146284603F0EFFB09B000
:1017F00030BD000041542B43495053454E443D25D4
:10180000640D0A003E0000000A48008808B9012063
:1018100070470848008808490988884203D1002099
:1018200004490880F4E70348008803490880012040
:10183000EEE70000100D0020120D002010B50A2068
:1018400004F0B8FC01F074FE012000F04BF810BD6C
:1018500010B5022000F046F810BD0EB500F0ACFB4C
:101860000121084602F0B8FD0021012000F08AF8AD
:101870000120019000208DF8080008208DF8090053
:1018800001208DF80A0001A800F032F80121084675
:1018900000F078F80220019008208DF8090001A8D6
:1018A00000F026F806208DF8000002208DF80100D7
:1018B00003208DF8020001208DF80300684601F036
:1018C0008FFE07208DF8000002208DF80100002017
:1018D0008DF8020001208DF80300684601F080FEBB
:1018E0000EBD00000149086070470000140401406B
:1018F000002123498279002A3AD00A4612680368F7
:101900009A430B461A600A1D126803689A430B1D1E
:101910001A60027911440A6803681A430A60184A77
:101920000832126803689A43154B08331A601A1D6F
:10193000126803689A43124B0C331A604279102ADA
:101940000ED11A1F126803681A430D4B08331A6030
:101950001A1D126803681A43094B0C331A600DE014
:101960000749427911440A6803681A430A6005E08E
:10197000027911440A6803689A430A6070470000BC
:101980000004014030B500228B071C0F0F2303FA1F
:1019900004F20B4B8C1053F824309343084C8D10F9
:1019A00044F8253023468C1053F824308C07240F3C
:1019B00000FA04F42343024C8D1044F8253030BD66
:1019C000080001402DE9F0410246002500260020D4
:1019D00000230024002791F803C00CF00F0591F8B4
:1019E00003C00CF0100CBCF1000F03D091F802C042
:1019F0004CEA050591F800C0BCF1000F31D0146825
:101A000000202BE04FF0010C0CFA00F3B1F800C0FD
:101A10000CEA03069E4220D183004FF00F0C0CFA13
:101A200003F7BC4305FA03FC4CEA040491F803C035
:101A3000BCF1280F06D14FF0010C0CFA00FCC2F8E3
:101A400014C00AE091F803C0BCF1480F05D14FF073
:101A5000010C0CFA00FCC2F810C0401C0828D1D3BD
:101A60001460B1F800C0BCF1FF0F34DD54680020F1
:101A70002EE000F1080C4FF0010808FA0CF3B1F861
:101A800000C00CEA03069E4221D183004FF00F0CE8
:101A90000CFA03F7BC4305FA03FC4CEA040491F882
:101AA00003C0BCF1280F05D100F1080C08FA0CF8AE
:101AB000C2F8148091F803C0BCF1480F07D100F1BF
:101AC000080C4FF0010808FA0CF8C2F81080401C0E
:101AD0000828CED35460BDE8F0810000F0B50A4676
:101AE000002300240021002500F00046B6F1004F3D
:101AF00002D11D4EF16901E01B4E7168C0F3034530
:101B000083B200F44016B6F5401F08D121F0706191
:101B1000154E766826F07066134F7E6012E000F472
:101B20008016B6F5801F06D1032606FA05F4A143F8
:101B300041F0706106E0460D360103FA06F6B14346
:101B400041F0706122B1460D360103FA06F63143C9
:101B500000F00046B6F1004F02D1034EF16101E002
:101B6000014E7160F0BD00000000014002460020FF
:101B700093680B400BB1012000E0002070474161E9
:101B80007047016170470AB1016100E0416170472F
:101B900010B504460723012221460948FFF704FC3B
:101BA00001210748FFF761FC00BF02210448FFF74D
:101BB000BFFB0028F9D00248FFF7B6FB10BD0000BC
:101BC000002401402DE9F04107460C46002500267F
:101BD00008E03846FFF7DCFF0544052004F0EAFA88
:101BE000701CC6B2A642F4DBB5FBF4F080B2BDE8CF
:101BF000F08100BFFEE7000010B54FF4A06001F0D7
:101C000027FD04F0B5FA00F027FA02F0DFFDFFF738
:101C100083FC00F0D9FD06F04BFC02F075FCFFF7E9
:101C20001CFEFFF733FC05F059FF00F043FA01F00A
:101C300081FD01F036FD01F015FD00F0BDF94FF416
:101C4000165008F0C3F84FF4E13003F069F941F69B
:101C50001F4142F20F7002F05BFF02A003F0CEF9C9
:101C600010BD0000B3F5CABCBBAFCDEAB3C90D0AC5
:101C70000000000010B500200F4908600F48006800
:101C800020F00F000D4908600846006840F007008A
:101C9000086000200A49C1F8A001022004F0B0FA4F
:101CA000012005490860022004F0AAFA0020044936
:101CB000C1F8A40110BD0000A4812142040C014020
:101CC0000080214208B50121082002F085FB4FF475
:101CD0004070ADF8000010208DF8030003208DF84F
:101CE000020069460448FFF76DFE012003490860C1
:101CF0000349C1F8A00108BD000C0140A4812142A4
:101D00000080214210B500200F4908600F4800688C
:101D100020F00F000D4908600846006840F00700F9
:101D2000086001200A49C1F8A001022004F068FA05
:101D3000012005490860022004F062FA00200449ED
:101D4000C1F8A40110BD0000A4812142040C01408F
:101D50000080214270B5054600241748006820F035
:101D60000F00154908600846006840F0040008604C
:101D7000002616E0002011490860022004F040FA15
:101D800001200F49C1F8A4016006040E0B488438F5
:101D9000006808B1601CC4B2012004F031FA701C64
:101DA000C6B2082EE6DB15B9FFF7ACFF01E0FFF77E
:101DB00061FF204670BD0000040C0140A481214257
:101DC0000080214270B504461548006820F00F00DD
:101DD000134908600846006840F0070008600020CA
:101DE00010490860002517E0E0090E49091F086046
:101DF0006006040E022004F003FA01200A49C1F82B
:101E0000A401022004F0FCF9002006490860022029
:101E100004F0F6F9681CC5B2082DE5DB70BD0000C2
:101E2000040C0140A48121420080214210B50F48DA
:101E3000006820F00F000D4908600846006840F077
:101E40000700086001200A4908600A49C1F8A40196
:101E5000042004F0D5F9002005490860042004F0AE
:101E6000CFF900200349C1F8A40110BD040C0140C2
:101E7000A08121420080214210B50F48006820F067
:101E80000F000D4908600846006840F00700086030
:101E900000200A4908600A49C1F8A001042004F0A2
:101EA000AFF90120054908600549C1F8A0010420E7
:101EB00004F0A6F910BD0000040C0140A4812142E9
:101EC0000080214210B500241448006820F00F0063
:101ED000124908600846006840F0040008600120CC
:101EE0000F49086004F08CF901200E49C1F8A401E3
:101EF00004F086F907E0601CC4B2FA2C03DDFFF79A
:101F0000BBFF012010BD0648803800680028F2D1D0
:101F10000349091D086000BFF4E70000040C0140FC
:101F2000A08121420080214210B54FF400610E488B
:101F3000FFF71CFE88B9142004F03CF900BF4FF4F1
:101F400000610948FFF712FE0028F8D0142004F0C1
:101F500031F901200549087002E0002003490870AA
:101F60000248007810BD0000000801409C000020DD
:101F700010B54FF480510E48FFF7F8FD88B91420D2
:101F800004F018F900BF4FF480510948FFF7EEFD47
:101F90000028F8D0142004F00DF90120054908703C
:101FA00002E00020034908700248007810BD0000DC
:101FB000000801409D00002008B50121042002F026
:101FC0000BFA48208DF803004FF4C650ADF800001E
:101FD00069460248FFF7F6FC08BD00000008014012
:101FE00010B5044614B1012019490870184800784A
:101FF000E8B140211748FFF7B9FD20B1802115480D
:10200000FFF7B4FD98B90A2004F0D4F80020104975
:10201000087040210F48FFF7A9FD08B9012010BD45
:1020200080210C48FFF7A2FD78B90220F7E7402194
:102030000848FFF79BFD012807D180210548FFF7DD
:1020400095FD012801D1024908700020E7E7000052
:102050009E0000200008014008B50121142002F074
:10206000BBF94FF40050ADF8000010208DF80300CC
:1020700003208DF8020069460C48FFF7A3FC4FF4DB
:1020800000510A48FFF77DFD2020ADF80000102028
:102090008DF8030003208DF8020069460448FFF71D
:1020A00091FC20210248FFF76CFD08BD00100140A3
:1020B000000801400EB53B483B49086000203B4901
:1020C00008604FF4FA703A49086000203949086006
:1020D0004DE000BF384800680128FBD03749072091
:1020E00005F0BBFC354800788007800B3349497800
:1020F00040EA012031498978084331492D4A126864
:1021000041F822002D48C0788007800B2B490979BF
:1021100040EA01202949497908432A49254A126899
:1021200041F8220026482349096850F821001E4939
:102130000968884206D222481E49096850F82100E1
:10214000194908601E481B49096850F821001749C1
:102150000968884206D91A481649096850F82100CA
:102160001249086013480068401C12490860114871
:1021700000680F4909688842ABDB11480D490968BE
:1021800050F821001049086010481149114A124BBB
:10219000CDE9002102900A4A05480168094805F086
:1021A0000BFD0EBDFFFF0300C80C0020CC0C00206F
:1021B000B40C0020D40C002014812142E10C00203A
:1021C000982D0020C8250020D00C0020C40C002031
:1021D000C00C0020BC0C0020B80C0020FEB504464A
:1021E0000D4600209D4908609D489E4908600020DA
:1021F0009D4908606420994908603AE09B489749E6
:10220000096850F82110954800686438974A42F8E8
:10221000201097489149096850F821108F480068AC
:102220006438934A42F8201090488C49096850F865
:1022300021008C490968884206D28C488749096880
:1022400050F821008749086088488449096850F897
:10225000210085490968884206D984487F49096870
:1022600050F82100804908607C480068401C7B4988
:1022700008607A480068B0F5FA7FBFDB4FF4C87099
:1022800076490860BAE075480068401E774951F801
:102290002000784908607849072005F0DEFB764881
:1022A00000788007800B7449497840EA0120724920
:1022B000897808436D49694A126841F822006E48DE
:1022C000C0788007800B6C49097940EA01206A498F
:1022D000497908436649614A126841F82200634817
:1022E0005E49096850F8210062490968884231D97D
:1022F0005E495A4A126851F822105E4A1268881ADA
:10230000FEF731FA5D49086057490968554A126875
:10231000881AFEF728FA0646314658480068FEF744
:1023200053F856490860564954480068FEF71AF8B1
:102330005249086008460068FEF738FA51490968B2
:10234000081A5049086008460068002833DA00205F
:10235000086030E04549414A126851F82210454A68
:102360001268501AFEF7FFF9444908603E490968AF
:102370003C4A1268881AFEF7F6F9064631463F488D
:102380000068FEF721F83D4908603D493B48006878
:10239000FDF7E8FF3949086008460068FEF706FACD
:1023A0003849096808443749086008460068FF282A
:1023B00001DDFF20086034480078012813D133483C
:1023C000006878280FDA3248007801280BD13148AC
:1023D0000068652807DA2D4800782F4908702D48D5
:1023E00000782E4908702C48007820702B4800781F
:1023F00028701A480068401C18490860174800688F
:10240000B0F5FA7FFFF63FAF1F482049204A214B25
:10241000CDE900210290154A21480168144805F0D1
:10242000CBFB1D48007838B91C48007820B91DA1A5
:10243000214802F0F3FD07E01848037816480278B7
:102440001EA11D4802F0EAFD1421084803F0FEFE1B
:102450000021074803F0FAFEFEBD0000D40C002066
:10246000FFFF0300C80C0020CC0C0020982D00209A
:10247000C8250020D00C0020E10C0020DC0C00203E
:1024800000007F43D80C0020C40C0020C00C0020AA
:10249000BC0C0020B80C0020E70C0020E80C002049
:1024A000B40C002048523A2D2D2D2053704F323A53
:1024B0002D2D2D20000000006835002048523A25BF
:1024C00033642053704F323A2533642000000000FB
:1024D0002DE9FC4104460D4616466B4606223B217B
:1024E000682000F0CBF90746BFB99DF801009DF8C0
:1024F000001040EA012000B220809DF803009DF802
:10250000021040EA012000B228809DF805009DF8E5
:10251000041040EA012000B230803846BDE8FC815A
:1025200010B500200F4908600F48006820F0704087
:102530000D4908600846006840F0405008600020DF
:102540000A49C1F89C01022003F05AFE0120054906
:102550000860022003F054FE00200449C1F89801ED
:1025600010BD000098812142000C014000802142F2
:1025700008B50121082001F02FFFC020ADF80000B0
:1025800010208DF8030003208DF8020069460448EE
:10259000FFF718FAC0210248FFF7F3FA08BD000060
:1025A000000C014010B500200F4908600F4800687A
:1025B00020F070400D4908600846006840F0405027
:1025C000086001200A49C1F89C01022003F018FEAE
:1025D000012005490860022003F012FE0020044992
:1025E000C1F8980110BD000098812142000C014003
:1025F0000080214270B5054600241748006820F08D
:102600007040154908600846006840F000400860C6
:10261000002616E0002011490860022003F0F0FDBA
:1026200001200F49C1F898016006040E0B487C3860
:10263000006808B1601CC4B2012003F0E1FD701C09
:10264000C6B2082EE6DB15B9FFF7ACFF01E0FFF7D5
:1026500067FF204670BD0000000C014098812142B8
:102660000080214270B504461548006820F0704093
:10267000134908600846006840F040500860002098
:1026800010490860002517E0E0090E49091D08609F
:102690006006040E022003F0B3FD01200A49C1F8D0
:1026A0009801022003F0ACFD0020064908600220DA
:1026B00003F0A6FD681CC5B2082DE5DB70BD000067
:1026C000000C0140988121420080214210B50F4842
:1026D000006820F070400D4908600846006840F02E
:1026E0004050086001200A4908600A49C1F8980171
:1026F000042003F085FD002005490860042003F054
:102700007FFD00200349C1F8980110BD000C014075
:102710009C8121420080214210B50F48006820F0C2
:1027200070400D4908600846006840F0405008605D
:1027300000200A4908600A49C1F89C01042003F0FE
:102740005FFD0120054908600549C1F89C0104208E
:1027500003F056FD10BD0000000C0140988121429D
:102760000080214210B500241448006820F0704019
:10277000124908600846006840F0004008600120E7
:102780000F49086003F03CFD01200E49C1F8980193
:1027900003F036FD07E0601CC4B2FA2C03DDFFF73E
:1027A000BBFF012010BD0648803800680028F2D128
:1027B0000349091F086000BFF4E70000000C014056
:1027C0009C8121420080214210B5FFF7D1FE80217B
:1027D0006B2000F0D7F8642003F0ECFC00216B20A4
:1027E00000F0D0F8032000F08BF8002000F080F813
:1027F000322000F0AAF80021382000F0C3F80021B0
:102800006A2000F0BFF80021232000F0BBF88021EF
:10281000372000F0B7F8752000F013F80446682C54
:102820000BD101216B2000F0ADF800216C2000F0ED
:10283000A9F8322000F089F801E0012010BD002045
:10284000FCE770B50446FFF741FFD020FFF70AFF11
:10285000FFF788FF2046FFF705FFFFF783FFFFF72D
:1028600035FFD120FFF7FEFEFFF77CFF0020FFF7CA
:10287000C1FE0546FFF750FF284670BD2DE9F04127
:1028800006460F4614461D46FFF720FF002141EA89
:102890004601C8B2FFF7E6FEFFF764FF20B1FFF77D
:1028A0003BFF0120BDE8F0813846FFF7DBFEFFF774
:1028B00059FFFFF70BFF012101EB4601C8B2FFF7FB
:1028C000D1FEFFF74FFF0DE0012C04D10020FFF7F0
:1028D00091FE287003E00120FFF78CFE2870601E37
:1028E000C4B26D1C002CEFD1FFF716FF0020D9E712
:1028F00010B50446E006010E1C2000F043F810BDA0
:1029000010B50446E006010E1B2000F03BF810BD98
:1029100070B504460025BC2C01DB012510E0622CBB
:1029200001DB02250CE02A2C01DB032508E0142C36
:1029300001DB042504E00A2C01DB052500E0062567
:1029400029461A2000F01EF870BD70B50446B4F593
:102950007A7F01DD4FF47A74042C00DA04244FF4FA
:102960007A7090FBF4F0401EC5B22946192000F0A1
:1029700009F80546264604EBD671C1F34F00FFF770
:10298000C7FF70BD70B505460C46FFF79FFED0200F
:10299000FFF768FEFFF7E6FE18B1FFF7BDFE012066
:1029A00070BD2846FFF75EFEFFF7DCFE2046FFF70E
:1029B00059FEFFF7D7FE18B1FFF7AEFE0120EFE793
:1029C000FFF7AAFE0020EBE72DE9F04105460E4691
:1029D00017469846FFF77AFE002141EA4501C8B242
:1029E000FFF740FEFFF7BEFE20B1FFF795FE012086
:1029F000BDE8F0813046FFF735FEFFF7B3FE002457
:102A00000CE018F80400FFF72DFEFFF7ABFE18B13D
:102A1000FFF782FE0120EBE7601CC4B2BC42F0DB92
:102A2000FFF77AFE0020E3E710B50446207B01287B
:102A300002D1206804F036FA002020606060A060B7
:102A4000207310BD0246002301230DE002F07F0039
:102A50000870D2092AB1087840F080000870491C3B
:102A600001E0184670475B1C042BEFDD4FF0FF3090
:102A7000F8E770B504460E460025206898B9012095
:102A80002073304604F068FF20602068E0B1002029
:102A90006060A66003E00020216848556D1CA068B6
:102AA000A842F8D810E00220207303E0002021683B
:102AB00048556D1CA068A842F8D800206060A06846
:102AC000B04201D20020206070BD00002DE9FF5F00
:102AD00007460D4690463846FDF7B7FB86B22846B6
:102AE000FDF7B3FB1FFA80FA4FF00009F01D04F068
:102AF00033FF04461CB9012004B0BDE8F09FF11D6E
:102B00002046FDF77BFB12A0016821608088A08031
:102B1000324639462046FDF7ACFB2846FDF795FBCB
:102B200083460120002100915B462A46CDE9020838
:102B3000019121460A2000F05FF910B94FF0000919
:102B400001E04FF00109204604F0ACF94846D3E714
:102B500024637273702F00002DE9FF4F83B082460B
:102B60008B469146159C0025002002900F2701906E
:102B70004846FDF76AFB0FFA80F8B9F1000F03D160
:102B8000012007B0BDE8F08F08F10200384487B299
:102B9000109808B145F00205129878B145F0040587
:102BA0001298FDF752FBC0B202901398FDF74DFB4F
:102BB00001460298001D0844384487B2119820B19C
:102BC000012804D0022808D104E000BF07E045F046
:102BD0000C0504E045F0140501E00220D1E700BF38
:102BE000149808B145F02405BAF1000F02D0BBF1EA
:102BF000000F01D10320C4E745F0C0055046FDF7A2
:102C000024FB06465846FDF720FB3044001D38449F
:102C100087B239462046FFF72CFF206808B9042008
:102C2000AFE739462068FDF7E9FA10216268501CC9
:102C3000606020688154D4E90023D118781FFFF721
:102C400001FF00B201900198002804DA2046FFF746
:102C5000EBFE052095E7616801980844606000215B
:102C60006268501C60602068815404216268501CB6
:102C70006060206881544D216268501C606020684B
:102C8000815451216268501C606020688154542135
:102C90006268501C6060206881546268501C6060EB
:102CA0002068815404216268501C6060206881544F
:102CB0006168481C6060206845540698010A626893
:102CC000501C6060206881540698C1B26268501C34
:102CD000606020688154C8F307216268501C6060FE
:102CE000206881546268501C6060206800F802808F
:102CF000D4E90012881842464946FDF7BAFA6068DE
:102D00004044606005F00400B8B30026139808B989
:102D100038A013901298FDF798FA86B2310A6268CB
:102D2000501C6060206881546268501C606020689C
:102D30008654D4E90012881832461299FDF799FAA0
:102D40006068304460601398FDF77FFA86B2310AFC
:102D50006268501C6060206881546268501C60602A
:102D600020688654D4E90012881832461399FDF77A
:102D700080FA60683044606000BF05F08000C8B130
:102D80005046FDF762FA86B2310A6268501C6060F4
:102D9000206881546268501C606020688654D4E9C1
:102DA0000012881832465146FDF763FA60683044D5
:102DB000606000BF05F04000C8B15846FDF745FA15
:102DC00086B2310A6268501C606020688154626873
:102DD000501C606020688654D4E90012881832467E
:102DE0005946FDF746FA60683044606000BF002035
:102DF000C7E60000000000002DE9FF4F83B08346C6
:102E000017469946139C0025002600200290019049
:102E10008046BBF1000F03D1012007B0BDE8F08F61
:102E200000260AE00498805D232803D00498805D82
:102E30002B2801D10220F0E7761C0498805D002841
:102E4000F0D148F03008119808B148F0010806EBBD
:102E50000900851C109820B1012804D002280AD14D
:102E600005E000BF09E048F00208AD1C05E048F0AD
:102E70000408AD1C01E00320CFE700BF8FB3387812
:102E8000022821D14FF0000A00BF50460AF1010A82
:102E9000385C7D28F9D1AAF1030A0AF107000290F3
:102EA0000298A9EB000AE81CA0EB0A012046FFF7F4
:102EB000E0FD206808B90420AFE7EA1CA2EB0A0194
:102EC0002068FDF79BF919E0691D2046FFF7D1FD49
:102ED000206808B90420A0E7691D2068FDF78EF975
:102EE0000CE0FFE7691D2046FFF7C3FD206808B925
:102EF000042092E7691D2068FDF780F96168481C8D
:102F00006060206800F80180D4E90002811828463A
:102F1000FFF798FD01900198002804DA2046FFF79A
:102F200083FD052079E76168019808446060C6F375
:102F300007216268501C6060206881546268501CE0
:102F4000606020688654D4E90012881832460499DB
:102F5000FDF78FF9606830446060109860B14FEA07
:102F60001B216268501C6060206881546268501C9C
:102F70006060206800F802B0C7B1387802280BD131
:102F8000D4E9001288183946029AFDF71EF96168E3
:102F900002980844606009E0D4E9001288184A46A3
:102FA0003946FDF712F9606848446060002034E754
:102FB00070B505460C4604212046FFF75AFD2068EF
:102FC00008B9012070BD70216268501C60602068E3
:102FD000815402216268501C60602068815429126B
:102FE0006268501C6060206881546268501C606098
:102FF000206885540020E5E770B505460C4604219D
:103000002046FFF736FD206808B9012070BD622117
:103010006268501C60602068815402216268501C04
:1030200060602068815429126268501C60602068CA
:1030300081546268501C6060206885540020E5E778
:103040002DE9FF5F8046174699460E9C0026B24642
:10305000B3460025B8F1000F03D1012004B0BDE84C
:10306000F09F0BE057F8250008B90220F6E757F863
:103070002500FDF7EAF80644681CC5B24D45F1DBB2
:1030800009EB4900801C00EB060A0AF10501204605
:10309000FFF7EFFC206808B90320DFE782216268B0
:1030A000501C606020688154D4E9000281185046A9
:1030B000FFF7C8FC0FFA80FBBBF1000F04DA2046D3
:1030C000FFF7B2FC0420C9E76068584460604FEA2B
:1030D00018216268501C6060206881546268501C2E
:1030E0006060206800F80280002524E057F8250081
:1030F000FDF7ABF80646C6F307216268501C606016
:10310000206881546268501C606020688654D4E94D
:103110000023D01857F825103246FDF7AAF860684A
:10312000304460600198C1B26268501C60602068E1
:103130008154681CC5B24D45D8DB00208EE7F0B540
:1031400004460D462646012300201060002114E0AD
:10315000775C07F07F07106807FB03001060705C66
:1031600000F0800008B9481CF0BDDB01B3F5001F7A
:1031700002D36FF00100F7E7491CA942E8DB4FF0EA
:10318000FF30F1E72DE9F84380460C4615461E4610
:103190002F2108F10600FDF74EF8074600200090A9
:1031A00017B90120BDE8F8837F1C6A46042108F1A5
:1031B0000100FFF7C4FF252004F0CEFB206020684B
:1031C00008B90220EEE725212068FDF717F8242230
:1031D00039462068FCF7F9FF243700982C383080F6
:1031E0003188481C04F0B8FB2860286820B92068A2
:1031F00003F058FE0320D5E73288511C2868FCF7FD
:10320000FDFF328839462868FCF7DFFF0020C9E758
:1032100001464878022801D001207047887810B113
:103220008878012801D1C878F7E7FF20F5E700008A
:103230002DE9FC5F81460D4614461E46DDE90C8BE8
:1032400099F8000000F00F0A002001900AF0080031
:103250000090CAF341008BF8000001AA042109F193
:103260000100FFF76CFF4844471C0198022802D375
:103270000AF0010010B1FF20BDE8FC9F7878397892
:1032800040EA012020802088801C0199884201D9D1
:10329000FF20F1E754A1B81CFCF7BBFF08B10F20D9
:1032A000EAE79BF8000020B101283DD0022877D141
:1032B0003BE0009808B1FF20DEE72188481C04F0BD
:1032C0004BFB2860286808B9FF20D5E72288511CED
:1032D0002868FCF793FF2288B91C2868FCF775FF63
:1032E0000198801E2188401AA8F80000B8F8001044
:1032F000481C04F031FB3060306820B9286803F0C6
:10330000D1FDFF20B8E7B8F80020511C3068FCF769
:1033100075FFB8F80020B4F800C0BB1C0CEB03012B
:103320003068FCF752FF4FE000BF2088801C0199F5
:10333000884201D9FF209FE72088C01C395C208883
:10334000801C385C41EA00210E9801800E9808B973
:10335000FF2091E72188481C04F0FEFA28602868C5
:1033600008B9FF2088E72288511C2868FCF746FF2F
:103370002288B91C2868FCF728FF0198001F2188C3
:10338000401AA8F80000B8F80010481C04F0E4FA4D
:103390003060306828B9286803F084FDFF206BE7AF
:1033A00010E0B8F80020511C3068FCF727FFB8F88F
:1033B0000020B4F800C03B1D0CEB03013068FCF7A3
:1033C00004FF01E0FF2057E700BF2B212846FCF750
:1033D00032FF20B923212846FCF72DFF08B1FF203A
:1033E0004AE7002048E7000024637265710000008E
:1033F00001464878022801D001207047887820B91A
:10340000C8780A2801D10020F7E70120F5E7014636
:103410004878022801D001207047887820B9C87800
:103420000A2801D10020F7E70120F5E70146487896
:10343000022801D001207047887820B9C8780A286E
:1034400001D10020F7E70120F5E702465078022875
:1034500001D0012070479078B0EB112F05D1D078C2
:10346000CBB2984201D10020F4E70120F2E700003E
:10347000F8B50446FF2720780511012D01DB0E2D3C
:1034800001DD3846F8BD032D24D1002000906A46A6
:103490000421601CFFF753FE2044461C00980228BC
:1034A00003D3207800F0010008B1FF20EAE770782C
:1034B000317840EA0120801C0099884201D9FF2020
:1034C000E0E706A1B01CFCF7A4FE08B10F2700E05E
:1034D000032700E02F463846D4E7000024637265D6
:1034E000710000000146FF208A78A2B9CA78142A28
:1034F00011D10A7932B1012A05D0022A04D0802ADA
:1035000006D103E000BF00BF002003E0012001E07E
:10351000022000BF00BF7047014601208A781AB917
:10352000CA781E2A00D10020704700BFFEE70000C5
:1035300010B5FEF7F9FC23490870FEF719FD224982
:10354000087022480078012808D106202049087018
:1035500000F088F800201D4908700BE01B48007837
:10356000022807D100201A49087000F07BF80020DB
:103570001649087014480078012809D115481449E3
:10358000097800EBC10040781149087000F06AF832
:103590000C480078012809D10E480D49097800EB44
:1035A000C10080780A49087000F05CF809480849B1
:1035B000097800EBC10040680749086008460068C8
:1035C000804710BDA7000020A80000200D000020AB
:1035D000A4000020AC000020A000002070470000E4
:1035E00070B5002100230F22C47804B3154C246861
:1035F00004F4E064C4F5E064210AC1F10403CA40A4
:10360000447804FA03F184781440214309010E4CF4
:103610000678A155047804F01F050124AC40057814
:103620006D11AD0005F1E025C5F8004109E0047811
:1036300004F01F050124AC40044D0678761145F8CE
:10364000264070BD0CED00E000E400E080E100E009
:1036500002490143024A1160704700000000FA0568
:103660000CED00E070B5002418E004F1B00000217A
:1036700000F0EBF90021084600F0E7F900211020E6
:1036800000F0E3F9002505E00121002000F0DDF95C
:10369000681CC5B2802DF7DB601CC4B2082CE4DBCB
:1036A00070BD10B500218D2000F0CFF9002114204D
:1036B00000F0CBF90021AF2000F0C7F910BD0000E9
:1036C00010B54FF480610948FEF75BFA4FF40061D2
:1036D0000648FEF756FA4FF400610448FEF74FFA29
:1036E0004FF480610148FEF74AFA10BD000C01401A
:1036F00010B54FF480610748FEF743FA4FF40061BC
:103700000448FEF73CFA4FF400610248FEF739FA2C
:1037100010BD0000000C014010B54FF4806104485A
:10372000FEF72FFA4FF480610148FEF728FA10BD2A
:10373000000C014008B50121092000F04DFE0121D7
:103740004348FEF7CBF94FF44060ADF8000010207D
:103750008DF8030003208DF8020069463D48FEF70E
:1037600031F94FF440613B48FEF70BFA4FF44870D3
:1037700002F020FD0021AE2000F067F9002108468C
:1037800000F063F90021102000F05FF900214020D3
:1037900000F05BF90021B02000F057F900218120F2
:1037A00000F053F90021FF2000F04FF90021A12083
:1037B00000F04BF90021A62000F047F90021A820D5
:1037C00000F043F900213F2000F03FF90021C8201C
:1037D00000F03BF90021D32000F037F90021084622
:1037E00000F033F90021D52000F02FF900218020CE
:1037F00000F02BF90021D82000F027F90021052046
:1038000000F023F90021D92000F01FF90021F12058
:1038100000F01BF90021DA2000F017F90021122036
:1038200000F013F90021DB2000F00FF90021302017
:1038300000F00BF900218D2000F007F90021142081
:1038400000F003F90021AF2000F0FFF808BD0000F0
:1038500000023000000C014070B504460D4605F131
:10386000B000002100F0F1F8102141EA141000210D
:1038700000F0EBF804F00F00002100F0E6F870BD56
:103880002DE9F04180460E46154600273146404658
:10389000FFF7E2FF00240AE0124A02EB8511085DFF
:1038A000012100F0D2F8781CC7B2601CC4B2102C01
:1038B000F2DB701CC1B24046FFF7CEFF00240CE0E3
:1038C0006900491C074A02EB4111085D012100F023
:1038D000BCF8781CC7B2601CC4B2102CF0DBBDE889
:1038E000F08100007C0100202DE9F04707460E46DC
:1038F0009046994600250024A8F12000C5B27F2FEC
:1039000002DD0027B01CC6B2B9F1100F24D1314638
:103910003846FFF7A1FF002408E004EB0511194A1F
:10392000505C012100F091F8601CC4B2082CF4DB5B
:10393000701CC1B23846FFF78FFF002409E004EB8A
:10394000051108310F4A505C012100F07EF8601C1F
:10395000C4B2082CF3DB12E031463846FFF77CFF97
:1039600000240AE005EB4501074A02EB4101085D2E
:10397000012100F06AF8601CC4B2062CF2DBBDE83D
:10398000F0870000B8A00008909E00082DE9FF5FB6
:10399000074691461E460E9D4FF0000A002435E072
:1039A000301B401EC1B20A2005F064FDB9FBF0F0E7
:1039B0000A21B0FBF1F201FB1208BAF1000F14D199
:1039C000701EA04211DDB8F1000F0CD1AB4605EB23
:1039D000DB71491001FB0471C8B22B46202201990A
:1039E000FFF782FF10E04FF0010AAB4605EBDB71F9
:1039F000491001FB0471C8B208F13001CAB22B466C
:103A00000199FFF771FF00BF601CC4B2B442C7DB6D
:103A1000BDE8FF9F2DE9F04105460E4614461F46BE
:103A20000EE022783B4631462846FFF75DFF05F160
:103A30000800C5B2782D02DD0025B01CC6B2641C9A
:103A400020780028EDD1BDE8F08170B504460D4620
:103A50001DB1E0B200F04AF802E0E0B200F030F848
:103A600070BD00002DE9F04105462C464FF4806101
:103A70001248FEF784F800261CE0274607F080076E
:103A8000802F04D139010D48FEF77BF804E04FF494
:103A900000610A48FEF773F86006040E4FF4806177
:103AA0000648FEF76EF84FF480610448FEF767F8A9
:103AB000701CC6B2082EE0DBBDE8F081000C0140AE
:103AC00010B50446FFF7FCFD7820FFF7CBFFFFF7AA
:103AD00023FE0020FFF7C6FFFFF71EFE2046FFF77C
:103AE000C1FFFFF719FEFFF703FE10BD10B5044636
:103AF000FFF7E6FD7820FFF7B5FFFFF70DFE40204A
:103B0000FFF7B0FFFFF708FE2046FFF7ABFFFFF718
:103B100003FEFFF7EDFD10BD30B58BB00020079020
:103B2000089009900A9001252B4B2C4A2CA131A01A
:103B300001F064FA07A8002102910391CDE9041075
:103B400000912B02244A0191244925A0FFF704F893
:103B500000283BD1089A91B20798FDF733FEFA206E
:103B6000FDF70EFD0446002C2CD02046FFF780FC0C
:103B7000022827D12046FFF74BFB06281DD2DFE89D
:103B800000F003080C10141826A001F037FA0025E5
:103B900017E029A001F032FA13E02EA001F02EFA6E
:103BA0000FE035A001F02AFA0BE03BA001F026FA65
:103BB00007E042A001F022FA03E04BA001F01EFA58
:103BC00000BF00BF07A8FEF72FFF02E04DA001F0E5
:103BD00015FA28460BB030BDE8B60008A4B60008B8
:103BE00053544D33322669666D686D745A5465308E
:103BF000650000004F6E654E65745F4465764C69E4
:103C00006E6B0D0A50524F49443A2025732C0941DE
:103C10005549463A2025732C0944455649443A25CE
:103C2000730D0A00546970733A09C1ACBDD3B3C9AE
:103C3000B9A60D0A000000005741524E3A09C1AC26
:103C4000BDD3CAA7B0DCA3BAD0ADD2E9B4EDCEF3F0
:103C50000D0A00005741524E3A09C1ACBDD3CAA764
:103C6000B0DCA3BAB7C7B7A8B5C4636C69656E7496
:103C700069640D0A000000005741524E3A09C1AC78
:103C8000BDD3CAA7B0DCA3BAB7FECEF1C6F7CAA7A8
:103C9000B0DC0D0A000000005741524E3A09C1AC99
:103CA000BDD3CAA7B0DCA3BAD3C3BBA7C3FBBBF2C7
:103CB000C3DCC2EBB4EDCEF30D0A00005741524E07
:103CC0003A09C1ACBDD3CAA7B0DCA3BAB7C7B7A87D
:103CD000C1B4BDD328B1C8C8E7746F6B656EB7C7F0
:103CE000B7A8290D0A0000004552523A09C1ACBDDF
:103CF000D3CAA7B0DCA3BACEB4D6AAB4EDCEF30D26
:103D00000A0000005741524E3A094D5154545F5039
:103D100061636B6574436F6E6E65637420466169A1
:103D20006C65640D0A00000070B588B005460C464D
:103D300000200490059006900790224629460FA087
:103D400001F05CF92046FCF780FA064604A8012140
:103D5000002200923346CDE90121039022462946F4
:103D60000A20FFF749F838B9059A91B20498FDF78F
:103D700029FD04A8FEF758FE08B070BD5075626CAE
:103D800069736820546F7069633A2025732C204D45
:103D900073673A2025730D0A000000002DE9F041F9
:103DA00090B0804600200C900D900E900F900B90DC
:103DB0000A9009900890002707900026002400250B
:103DC0004046FFF755FB0746F81E0D287ED2DFE878
:103DD00000F028B3BBD3F07DF87DED7D7D7D07003D
:103DE00008AB0BAA0AA94046FFF7CCF90646BEB9B4
:103DF000BDF8203097A0DDE90A1201F0FFF80CAA07
:103E0000DDE90A01FEF762FE50B99BA001F0F6F869
:103E10000D9A91B20C98FDF7D5FC0CA8FEF704FEA4
:103E2000EAE09B4807A908AA0BABCDE90021029064
:103E300009AA0AA94046FFF7FBF90646002E7AD1E7
:103E4000BDF820000090BDF8242092A0DDE90A13FF
:103E500001F0D4F83A210B98FCF7EDF90446002C58
:103E600069D0701C002866D0641C05E014F8012B92
:103E700028466D1C04A90A542078302802DB2078DB
:103E80003928F3DD04A8FCF708FA054690A10B9841
:103E9000FCF7BFF9E8B129468FA001F0AFF8012D7A
:103EA00049D101209049087008460078012842D184
:103EB00000208E4908608E4908608E4908608E494E
:103EC00008608E4908600220874900E091E0087090
:103ED00031E08BA10B98FCF79CF930B129468AA000
:103EE00001F08CF88C490D7025E08CA10B98FCF743
:103EF00090F930B129468BA001F080F88D490D7002
:103F000019E08DA10B98FCF784F948B129468CA0E3
:103F100001F074F82846FCF71DFC8C4908600AE0A3
:103F20008BA10B98FCF775F928B129468AA001F0FE
:103F300065F88D4805605FE04046FFF759FA10B913
:103F40008AA001F05BF857E04046FFF76FFA90B99E
:103F50008EA001F053F80CA90A20FFF74DF850B9D4
:103F600090A001F04BF80D9A91B20C98FDF72AFC45
:103F70000CA8FEF759FD3FE0454801884046FFF791
:103F800064FA90B98DA001F039F80CA90A20FFF766
:103F90000FF850B98FA001F031F80D9A91B20C983A
:103FA000FDF710FC0CA8FEF73FFD25E015E008E04A
:103FB000FFE74046FFF72BFA10B98DA001F01EF87D
:103FC0001AE04046FFF78EFA18B98FA001F016F8F4
:103FD00002E094A001F012F80EE04046FFF79CFAD0
:103FE00018B997A001F00AF802E09CA001F006F8C9
:103FF00002E04FF0FF3600BF00BFFDF7B3FA701CC0
:1040000010B910B0BDE8F0817D210B98FCF713F9D1
:1040100004469CB1701C88B1641C05E014F8012BA7
:1040200028466D1C04A90A542078302802DB207829
:104030003928F3DD04A8FCF730F905460F2F01D02D
:10404000032F05D10A9802F02DFF0B9802F02AFFEA
:1040500000BFD6E7636D6469643A2025732C207233
:1040600065713A2025732C207265715F6C656E3A1C
:104070002025640D0A000000546970733A095365E5
:104080006E6420436D64526573700D0A0000000079
:10409000140D0020746F7069633A2025732C20740E
:1040A0006F7069635F6C656E3A2025642C207061C7
:1040B000796C6F61643A2025732C207061796C6F84
:1040C00061645F6C656E3A2025640D0A0000000093
:1040D00043616E63656C6C0043616E63656C6C205C
:1040E0003D2025640D0A00000C0000207000002017
:1040F00074000020780000207C0000208000002058
:1041000048656172740000004865617274203D204A
:1041100025640D0A0000000000000020426C6F6F53
:10412000646F7800426C6F6F646F78203D20256467
:104130000D0A00000100002054656D7000000000B1
:1041400054656D70203D2025640D0A000400002098
:10415000426C6F6F64707200426C6F6F647072209B
:104160003D2025640D0A000008000020546970738A
:104170003A094D515454205075626C69736820534C
:10418000656E64204F4B0D0A000000005469707387
:104190003A09526576205075626C6973685265639E
:1041A0000D0A0000546970733A0953656E6420501B
:1041B00075626C69736852656C0D0A00546970739E
:1041C0003A09526576205075626C69736852656C65
:1041D0000D0A0000546970733A0953656E642050EB
:1041E00075626C697368436F6D700D0A00000000A2
:1041F000546970733A09526576205075626C697320
:1042000068436F6D700D0A00546970733A094D511F
:10421000545420537562736372696265204F4B0D6D
:104220000A000000546970733A094D5154542053E8
:104230007562736372696265204572720D0A0000CF
:10424000546970733A094D51545420556E53756238
:10425000736372696265204F4B0D0A005469707375
:104260003A094D51545420556E5375627363726907
:104270006265204572720D0A0000000070B586B0BC
:1042800004460D46002600200290039004900590FD
:1042900006E054F826100DA000F0B0FE701CC6B267
:1042A000AE42F6DB02A82B462246002100901420E5
:1042B000FEF7C6FE38B9039A91B20298FDF782FA6A
:1042C00002A8FEF7B1FB06B070BD00005375627323
:1042D000637269626520546F7069633A2025730DBB
:1042E0000A000000FCB502462F2300BF00208DF815
:1042F00005008DF804008DF803008DF80200012000
:104300008DF8010007208DF800002F2300250521DE
:10431000002409E0581EC3B2072C02DA601CC4B2A4
:1043200002E00024481EC1B2505C8027274138407B
:1043300008B90029EEDCA3F10800C5B21EE0052192
:1043400018E0481E1DF8000000F0800018B1002998
:1043500001DD012600E000261DF801004006000EE8
:104360000DF801001DF801003044C0B20DF8010045
:10437000481EC1B2FF29E4DB681EC5B2002DDED1A4
:10438000002106E0505C1DF8017078405054481C34
:10439000C1B20529F6DD082BA8DC1078FCBD7047FA
:1043A00001460020034A506820F440400843506012
:1043B000704700000010024029B1064AD26902434A
:1043C000044BDA6104E0034AD2698243014BDA61AB
:1043D000704700000010024029B1064A926902436A
:1043E000044B9A6104E0034A92698243014B9A614B
:1043F000704700000010024029B1064AD26802430B
:10440000044BDA6004E0034AD2688243014BDA606D
:10441000704700000010024030B500210022002447
:1044200000232D4D6D6805F00C0121B1042905D044
:10443000082923D105E0294D056022E0274D0560BC
:104440001FE0254D6D6805F47012234D6D6805F46D
:104450008034022505EB92421CB9214D554305607D
:104460000BE01D4D6D6805F400351DB11C4D554325
:10447000056002E0194D5543056002E0174D0560E7
:1044800000BF00BF144D6D6805F0F0010909154D1E
:104490006B5C0568DD4045600F4D6D6805F4E061BB
:1044A000090A104D6B5C4568DD4085600A4D6D68FA
:1044B00005F46051C90A0B4D6B5C4568DD40C56071
:1044C000054D6D6805F44041890B074D6B5CC5686F
:1044D000B5FBF3F5056130BD0010024000127A0013
:1044E00000093D00FB0C00200B0D0020002107E01F
:1044F000002201E0531C9AB28242FBDB4B1C99B2B2
:104500000429F5DB7047000008B501210820FFF7FA
:1045100063FF4FF44040ADF8000014208DF8030015
:1045200003208DF8020069460648FDF74BFA012288
:1045300091030448FDF727FB0122D1030148FDF751
:1045400022FB08BD000C01402DE9FC5F04460D462E
:104550004FF00009CA46CB466006040E00BF00BFFC
:1045600000F010F9ABF1010000F0FF0BBBF1000F00
:1045700000D136E000F0E0F8204600F0C3F800B1CA
:10458000EEE7284600F0BEF800B1E9E700F0D4F805
:10459000611CC8B200F0B6F800B1E1E7002000F0FD
:1045A00071F88146002000F06DF88246012000F08D
:1045B00069F8804600F0E6F88DF805408DF8045063
:1045C000601CC0B28DF803008DF802908DF801A038
:1045D00000208DF800006846FFF784FE0646464539
:1045E000BDD100BF49EA0A273846BDE8FC9F00005C
:1045F0002DE9F05F07210020FFF7A6FF8346FCF7B7
:10460000C8F88046084A094BFBF7C3FF06464FF03F
:104610006632074BFBF7B7FF0446FCF73FF98246CB
:104620005046BDE8F09F00007B14AE47E17A943F0E
:104630006612714010B50122D1031148FDF7A3FAAB
:104640000220FFF753FF012291030D48FDF79BFA6B
:104650000520FFF74BFF0A480830006800F40040CF
:1046600008B1012400E0002400224FF480410448F6
:10467000FDF789FA0320FFF739FF204610BD00003F
:10468000000C014070B5064608250DE0FFF7D2FF8B
:1046900020B16006040E44F0010403E06006040E3D
:1046A00004F0FE04681EC5B2002DEFD1304600F0C4
:1046B00003F8204670BD000010B5044634B900224E
:1046C0004FF400410E48FDF75EFA04E00122D103E9
:1046D0000B48FDF758FA0220FFF708FF012291036B
:1046E0000748FDF750FA0620FFF700FF00224FF4BD
:1046F00080410348FDF747FA0320FFF7F7FE10BD9E
:10470000000C01402DE9F041044608250CE004F0BE
:10471000800008B1012600E000263046FFF7CCFFFC
:104720006006040E681EC5B2002DF0D1FFF782FFAF
:1047300007463846BDE8F08110B50122D103104884
:10474000FDF721FA0520FFF7D1FE012291030C4865
:10475000FDF719FA0520FFF7C9FE00224FF40041CA
:104760000748FDF710FA0520FFF7C0FE00224FF4BE
:1047700080410348FDF707FA0520FFF7B7FE10BD9B
:10478000000C014010B500224FF480410E48FDF7A7
:10479000FAF90520FFF7AAFE00224FF400410A486B
:1047A000FDF7F1F90520FFF7A1FE0122910306486C
:1047B000FDF7E9F90520FFF799FE0122D103024830
:1047C000FDF7E1F910BD0000000C014008B5012122
:1047D0000820FFF701FE0120ADF8000010208DF841
:1047E000030003208DF8020069461D48FDF7EAF832
:1047F00001211B48FDF7C5F90220ADF8000010208B
:104800008DF8030003208DF8020069461448FDF777
:10481000D9F802211248FDF7B4F90820ADF80000DC
:1048200010208DF8030003208DF8020069460C4823
:10483000FDF7C8F808210A48FDF7A3F91020ADF8E4
:1048400000008DF8030003208DF80200694604483B
:10485000FDF7B8F810210248FDF793F908BD0000F4
:10486000000C0140704710B500F002F810BD0000C8
:104870000CB50020019000903348006840F480306F
:104880003149086000BF3048006800F400300090F3
:104890000198401C0190009818B90198B0F5A06FDC
:1048A000F1D12948006800F4003010B101200090D7
:1048B00001E0002000900098012843D123480068BF
:1048C00040F01000214908600846006820F003000D
:1048D00008600846006840F0020008601A48406816
:1048E000194948600846406848600846406840F4F6
:1048F000806048600846406820F47C1048600846A4
:10490000406840F4E81048600846006840F0807055
:10491000086000BF0C48006800F000700028F9D063
:104920000948406820F0030007494860084640688D
:1049300040F00200486000BF0348406800F00C00EF
:104940000828F9D10CBD00000010024000200240F0
:10495000042808D14FF0E021096941F004014FF02B
:10496000E022116107E04FF0E021096921F0040124
:104970004FF0E022116170477047000010B51348F6
:10498000006840F00100114908600846406810497D
:1049900008400E494860084600680E4908400B4927
:1049A00008600846006820F48020086008464068D7
:1049B00020F4FE0048604FF41F008860FFF753FFAB
:1049C0004FF000600449086010BD00000010024074
:1049D0000000FFF8FFFFF6FE08ED00E010B5012132
:1049E000880700F0D4F818B10121880700F0C0F85A
:1049F00010BD7FB505460C4601210846FFF7DCFCDB
:104A0000ADF80850ADF804400020ADF80A00ADF84C
:104A1000060001A94FF0804000F0D4F801221146B1
:104A2000900700F0C5F81C208DF8000000208DF8DC
:104A3000010003208DF8020001208DF80300684674
:104A4000FEF7CEFD0121880700F095F87FBD00003C
:104A500010B50121274800F09AF8002848D001211C
:104A6000244800F085F824480078012830D12348F4
:104A70000078401C21490870002021490860214825
:104A8000D0F8940108B9012000E000201E49086018
:104A90001C48D0F8900108B9012000E000201A4914
:104AA000091F0860154800781E2821DB00201349E3
:104AB000087011490870012013490860002011494D
:104AC000C1F890010120114908600D4908600FE00C
:104AD0000948007802280BD10120094908600949DA
:104AE000C1F8940100200849091F086003490870B3
:104AF00010BD00000004004018000020FA0C002047
:104B00008C8121420000214294012142700000204A
:104B10007FB505460C4601210220FFF74DFCADF89C
:104B20000850ADF804400020ADF80A00ADF80600CA
:104B300001A90E4800F046F8012211460B4800F08A
:104B400037F81D208DF8000000208DF801000320AB
:104B50008DF8020001208DF803006846FEF740FD45
:104B60000121024800F007F87FBD0000000400406A
:104B7000CA430282704721B1028842F001020280DA
:104B800004E002884FF6FE731A400280704730B589
:104B90000246002000230024158A05EA01039589B6
:104BA00005EA010413B10CB1012000E0002030BD82
:104BB0001AB183890B43838102E083898B4383810C
:104BC00070470000002202881D4B98420ED01D4BFA
:104BD00098420BD0B0F1804F08D01B4B984205D0C3
:104BE0001A4B984202D01A4B984204D14FF68F7359
:104BF0001A404B881A43174B984207D0164B9842DD
:104C000004D04FF6FF431A40CB881A4302808B88AA
:104C100083850B8803850A4B98420BD0094B984239
:104C200008D00E4B984205D00D4B984202D00D4B48
:104C3000984201D10B7A03860123838270470000DA
:104C4000002C0140003401400004004000080040F6
:104C5000000C0040001000400014004000400140E3
:104C6000004401400048014010B540F22551204861
:104C700000F08EF8002839D01D4800F045F9C4B284
:104C8000242C02D100201B4908801A480188008882
:104C9000401C184A108018484454007824281ED11B
:104CA000154800794D281AD113484079432816D168
:104CB0000A2C14D150211148FBF7A0FA0D480288A4
:104CC0000D490E48FBF781FA01200C4981F850008C
:104CD000002008490880C8210748FBF78FFA0548DB
:104CE0000088C82802DBC8200249088010BD0000E7
:104CF00000380140F20C002045360020CC35002061
:104D000010B540F225510E4800F042F8B0B10D4800
:104D10000088FF2802D900200A4908800848001DA1
:104D20000088C1B2074802880088401C054B1880E3
:104D3000054881542021024800F008F810BD000009
:104D400000440040100D00200D37002001F40072D7
:104D5000B2F5007F00D100BFCA430280704721B185
:104D6000828942F40052828104E082894DF6FF7309
:104D70001A408281704702460020B1F5007F00D1C1
:104D800000BF13880B400BB1012000E000207047EA
:104D900070B50246002400230025002040F66A1664
:104DA000B14200D100BFC1F3421501F01F0301263B
:104DB00006FA03F3012D02D19689334006E0022D55
:104DC00002D1168A334001E0968A33400C12012644
:104DD00006FA04F41688344013B10CB1012000E047
:104DE000002070BDF0B503460024002600250020F9
:104DF00040F66A17B94200D100BF1846C1F3421409
:104E000001F01F06012707FA06F5012C01D10C302D
:104E100004E0022C01D1103000E014301AB1076810
:104E20002F43076002E00768AF430760F0BD000052
:104E30002DE9F04786B005460E460024A24600BF85
:104E4000A1460027B08900B100BF2F462C8A4CF63E
:104E5000FF700440F08804432C82AC894EF6F310B6
:104E60000440B08831890843718908430443AC8108
:104E7000AC8A4FF6FF400440B0890443AC8201A8DD
:104E8000FFF7CAFA1F48874202D1DDF810A001E0FF
:104E9000DDF80CA0A88900F4004040B10AEBCA007C
:104EA00000EB0A1031684900B0FBF1F807E00AEBAB
:104EB000CA0000EB0A1031688900B0FBF1F86420E9
:104EC000B8FBF0F004012009642101FB1089A889D6
:104ED00000F4004040B1322000EBC900B0FBF1F01B
:104EE00000F00700044308E0322000EB09106421C1
:104EF000B0FBF1F000F00F0004432C8106B0BDE8D8
:104F0000F08700000038014001468888C0F308009F
:104F10007047C1F308028280704700BFFEE70000BF
:104F200010B586B0044601210420FFF755FA01218F
:104F30004804FFF741FA18208DF817000420ADF857
:104F4000140003208DF8160005A91E48FCF73AFD51
:104F500004208DF817000820ADF8140003208DF808
:104F6000160005A91748FCF72DFD01940020ADF8A7
:104F700010000C20ADF80E000020ADF80C00ADF8CC
:104F80000A00ADF8080001A90F48FFF751FF012101
:104F90000D48FFF7E4FE012240F225510A48FFF7D1
:104FA00021FF26208DF8000001208DF8030000204D
:104FB0008DF801008DF802006846FEF711FB06B07F
:104FC00010BD0000000801400044004070B50446D8
:104FD0000D4600260DE014F8011B0748FFF799FF66
:104FE00000BF40210448FFF7C6FE0028F9D0701C1E
:104FF00086B2AE42EFDB70BD004400400FB4054BFB
:1050000010B503A9044A029800F072F910BC5DF8CB
:1050100014FB0000896E0008F40C00200FB4084B4C
:1050200010B504A902AA039800F062F9044602A987
:10503000002000F0F4FC204610BC5DF814FB0000DA
:105040001F5A0008490050EAC12018BF04204A0D29
:1050500018BF40F0010040F2FF72B2EB515F08BF91
:1050600040F00200012808BF052070470048704743
:10507000200D00202DE9F0414F1E00EBC701044632
:10508000D1E9000115461E4637F006020DD02A462A
:105090003346FBF77EFA7F1E04EBC703D3E90023F8
:1050A000FBF7D0F937F00602F1D1022F25D0042FFB
:1050B00013D0062F18BFBDE8F0812A463346FBF710
:1050C00068FAD4E90A23FBF7BDF92A463346FBF711
:1050D00060FAD4E90823FBF7B5F92A463346FBF713
:1050E00058FAD4E90623FBF7ADF92A463346FBF715
:1050F00050FAD4E90423FBF7A5F92A463346FBF717
:1051000048FAD4E90223FBF79DF92A463346FBF718
:1051100040FAD4E90023BDE8F041FBF793B901223E
:10512000FBF77EBDFBF78EB90022134610461146F1
:10513000FBF7A1BA024A00201107FBF771BD00007E
:1051400001FDFFFF0148006870470000200D0020AE
:1051500002E008C8121F08C1002AFAD17047704740
:10516000002001E001C1121F002AFBD1704700009E
:105170000149086070470000200D00202DE9FF5F05
:10518000DDE90220010DDDF838B0024318D044F605
:105190001050A1F2FF3141430D140F98012820D087
:1051A000A5EB0B00401C5FEA000A4FF00004474EDD
:1051B000DFF81C91A046504616D5CAF1000728E03A
:1051C0000F98012443A2012808D0002100980F9BCA
:1051D000C0E90021C0E90243BDE8FF9F6FEA0B016F
:1051E000F4E7CBF10000DEE7074612E0F80707D04E
:1051F0002246334640464946FBF7CBF9804689466E
:105200002246334610461946FBF7C3F904460E46BC
:105210007F10002FEAD1DDE90201BAF1000F42460A
:105220004B4602DAFBF7B5F901E0FBF724FA044636
:105230000E460022284BFBF719FB03D84FF0FF3036
:10524000014607E00022254B20463146FBF7FAF8DD
:10525000FBF74EFD102409E0002C0ADB0A22002394
:10526000FBF762FB019B30321A55641E50EA0102C3
:10527000F2D1641C019AC4F1110314440F9A012A5B
:1052800003D0012208430DD10AE0084304D00020D6
:105290004FF0110B0F9080E7A3EB0B056D1E0DE097
:1052A0005B4504DD4FF0000205F1010504E003DA7F
:1052B0004FF00002A5F10105002AECD000980F99EB
:1052C000C0E90231C0E9004586E700000000244043
:1052D0000000F03F300000000000F0430000E03F1D
:1052E00030380A2801D201207047002070470000A2
:1052F0002DE9FF4F95B09B468946064600250FE2F3
:10530000252877D100242746F84A0121059400E09A
:10531000044316F8013F203B01FA03F01042F7D195
:1053200030782A2811D06FF02F033078A0F13002A6
:10533000092A16D8059A44F0020402EB820203EB14
:1053400042021044761C0590EFE759F8042B0592B1
:10535000002A03DA504244F40054059044F0020459
:10536000761C30782E2816D116F8010F44F004046C
:105370002A280DD06FF02F023078A0F13003092BCE
:1053800009D807EB870302EB4303C718761CF3E742
:1053900059F8047B761C30786C280FD006DC4C283A
:1053A00017D068280DD06A2814D104E0742810D0D2
:1053B0007A280FD10DE044F400140AE044F480147C
:1053C00001E044F440147278824202D104F5801462
:1053D000761C761C307866280BD013DC582877D0E2
:1053E00009DC002875D04528F6D04628F4D0472897
:1053F0001AD19DE118E0632835D0642879D065285A
:1054000012D195E1702873D008DC6728F1D06928A3
:105410006FD06E280DD06F2806D1B5E073282CD040
:10542000752875D0782874D05A46179990476D1C06
:1054300075E1C4F30250022809D003280DD0D9F831
:10544000001004280DD00D6009F1040967E1D9F8B6
:105450000010EA17C1E90052F6E7D9F800100D80F4
:10546000F2E70D70F0E719F8041B8DF8001000202A
:105470008DF80100EA46012003E059F804AB4FF033
:10548000FF3061074FF0000102D40DE008F1010187
:105490008846B9420FDA8045F8DB1AF8081000296F
:1054A000F4D108E008F1010188468142FADB1AF8DC
:1054B00008100029F6D105985B46A0EB08072146A5
:1054C0003846179A00F094FA284400EB080507E0E4
:1054D0004DE029E10DE01AF8010B5A461799904763
:1054E000B8F10108F7D25B4621463846179A13E116
:1054F00042E00A220092C4F302524FF0000A022A4C
:1055000008D059F804CB032A4FEAEC710AD00DE019
:1055100029E02AE009F1070121F00702F2E802C1BF
:10552000914609E00FFA8CFC4FEAEC71042A03D192
:105530004FFA8CFC4FEAEC71002907DA0A46002189
:10554000DCF1000C61EB02012D2202E0220504D502
:105550002B228DF80420012203E0E20701D0202253
:10556000F7E7904659E00A2102E010220DE01021F1
:105570004FF0000A00910BE010224FF0000A44F0B7
:1055800004040827009203E008224FF0000A00926A
:10559000C4F30252022A05D059F804CB0021032A91
:1055A00008D009E009F1070121F00702F2E802C181
:1055B000914605E01FFA8CFC042A01D10CF0FF0C87
:1055C0004FF00008220728D5702806D0009B83F0F2
:1055D000100353EA0A0305D00EE040228DF80420A0
:1055E000012208E05CEA010206D030228DF8042096
:1055F0008DF8050002229046009B83F0080353EAD1
:105600000A030AD15CEA010201D1620705D5302202
:105610008DF804204FF001087F1E582804D034A0D4
:1056200003900EA802900DE036A0F9E753466046BD
:10563000009AFBF779F984460398825C0298401E31
:10564000029002705CEA0100F0D1029806A9081AE3
:1056500000F1200A600702D524F4803400E001271D
:10566000574502DDA7EB0A0000E0002000EB0A012D
:10567000009005984144401A0590E00306D45B462B
:105680002146179A059800F0B3F90544002706E073
:1056900001A85A46C05D179990476D1C7F1C47456D
:1056A000F6DBE0030CD55B462146179A059800F01F
:1056B0009FF9054404E030205A46179990476D1C25
:1056C0000099481E00900029F5DC08E00298029934
:1056D0005A460078491C0291179990476D1CBAF1FF
:1056E0000001AAF1010AF1DC65E1000009280100CE
:1056F0003031323334353637383961626364656648
:105700000000000030313233343536373839414209
:10571000434445460000000000F058F90544761C5B
:10572000307800287FF4ECAD19B02846BDE8F08F42
:10573000620700D4062709F1070222F0070CFCE8F3
:105740000223E14603F000485FEA080C02D00FF2A2
:10575000702C0DE05FEA045C02D50FF2682C07E0C4
:105760005FEAC47C02D00FF2602C01E0AFF2700C53
:105770004FF0FF3823F00043CDF850C065280CD01F
:1057800006DC452809D046281DD047283DD13DE0FC
:10579000662818D067287ED138E00021112F01DB60
:1057A000112000E0781CCDE9000106A90EA8FFF742
:1057B000E5FCDDE90F010E9A03910021009207F14B
:1057C000010A04914DE04FF000400097CDE901102F
:1057D00006A90EA8FFF7D2FCDDE90F0203920E9B8B
:1057E00011990022DDF80CA00093049211B9791CE4
:1057F00000EB010AB7EB0A0004D4C0F1FF3007F157
:10580000010A0490AAEB0700019044E0012F00DA9E
:1058100001270021112F01DD112000E03846CDE9DC
:10582000000106A90EA8FFF7A9FCDDE90F010E9AF9
:105830000391002104910092BA4621070CD40399E8
:10584000514500DA8A46BAF1010F05DD009AAAF146
:105850000101515C302908D0B84202DA10F1040F7E
:1058600006DA0121CDE9011015E0AAF10101E9E70D
:10587000002805DC049901440491AAEB000102E030
:10588000411C514500DD8A460499401A401C019094
:105890004FF000400290200704D40198504501DBEE
:1058A000CDF8048000208DF84F0002980DF14F07CD
:1058B000B0F1004F25D02B200E9002984FF0020837
:1058C00000280CDA404202902D200E9007E00A21B9
:1058D0000298FBF713F83031029007F8011DB8F178
:1058E0000001A8F10108F2DC02980028EFD1791E2E
:1058F0000E980870307800F0200040F0450007F85E
:10590000020D12A8C01B00F107081498007800B11E
:10591000012000EB0A01019801EBE0710598414478
:10592000401A401E0590E00306D45B462146179AB4
:10593000059800F05DF805441498007818B15A46AF
:10594000179990476D1CE00324D55B462146179AB2
:10595000059800F04DF805441CE00498002807DB8A
:10596000DDE90301884203DD0098405C179901E0FE
:10597000179930205A469047049805F10105401CBC
:1059800004900198401E019004D12E205A46179988
:1059900090476D1CBAF10001AAF1010ADDDC05E0B7
:1059A00017F8010B5A46179990476D1CB8F1000182
:1059B000A8F10108F4DC5B462146179A0598ABE68E
:1059C0002D0000002B000000200000002DE9F04118
:1059D000044600251E461746880404D405E03946CF
:1059E0002020B0476D1C641EF9D52846BDE8F08123
:1059F0002DE9F041044600251E469046C80301D516
:105A0000302700E02027880404D505E041463846C9
:105A1000B0476D1C641EF9D52846BDE8F0810A68C0
:105A2000531C0B60107070472DE9FE4F06460F4661
:105A30000025684601F05EFA002442E056F8240092
:105A400057F82410A0EB010ABAF1000F01DB514610
:105A500001E0CAF100010846FAF77CFE83464FF0E8
:105A60008F41FAF7B1FC80465DF824000021FAF777
:105A700031FF16D05DF824104046FAF7A5FC8246A7
:105A80004FF07E51FAF768FC814629F0004A0F4832
:105A9000416A5046FAF728FF12D20120A040054380
:105AA0000EE00A48C1694046FAF714FF05D30748DB
:105AB000016A4046FAF718FF02D20120A0400543D0
:105AC000641C032CBADB2846BDE8FE8FD0A6000874
:105AD0002DE9F04D8D4F21F0004A86B005460C4669
